:0801220002080000020A0000BF
:1000EF00E4F5A753D9BF1201171201067FA87E614D
:0700FF00120003D2AF80FEE6
:0A011700AFA775A70F75A1848FA78D
:0101210022BB
:10010600AFA775A70F43A60775D6FF75C7408FA77C
:0101160022C6
:10000300ADA7E4F5A7F5C8538E9FC39FFFE49EF504
:0F001300CB8FCA74FFF5CDF5CCD2ADD2CA8DA775
:0100220022BB
:03002B000200BA16
:1000BA00C0E0C0D0C2CF0509E50970020508C394A3
:1000CA00E8E508648094834002B2A0C3E50994D0AD
:1000DA00E508648094874008B2A175080075090094
:0500EA00D0D0D0E0328F
:0300000002002ECD
:0C002E00787FE4F6D8FD75810B020075A8
:10003A000200EFE493A3F8E493A34003F68001F2ED
:10004A0008DFF48029E493A3F85407240CC8C333C7
:10005A00C4540F4420C8834004F456800146F6DF96
:10006A00E4800B0102040810204080900122E47E03
:10007A00019360BCA3FF543F30E509541FFEE4938B
:10008A00A360010ECF54C025E060A840B8E493A352
:10009A00FAE493A3F8E493A3C8C582C8CAC583CA7D
:1000AA00F0A3C8C582C8CAC583CADFE9DEE780BE35
:01012A0000D4
:00000001FF
